{
  "contractName": "MyMarketplace",
  "abi": [
    {
      "inputs": [
        {
          "internalType": "contract MyToken",
          "name": "_token",
          "type": "address"
        }
      ],
      "stateMutability": "nonpayable",
      "type": "constructor"
    },
    {
      "anonymous": false,
      "inputs": [
        {
          "indexed": false,
          "internalType": "uint256",
          "name": "id",
          "type": "uint256"
        },
        {
          "indexed": false,
          "internalType": "uint256",
          "name": "tokenId",
          "type": "uint256"
        },
        {
          "indexed": false,
          "internalType": "uint256",
          "name": "price",
          "type": "uint256"
        }
      ],
      "name": "tokenAddedForSale",
      "type": "event"
    },
    {
      "anonymous": false,
      "inputs": [
        {
          "indexed": false,
          "internalType": "uint256",
          "name": "id",
          "type": "uint256"
        },
        {
          "indexed": false,
          "internalType": "address",
          "name": "buyer",
          "type": "address"
        },
        {
          "indexed": false,
          "internalType": "uint256",
          "name": "price",
          "type": "uint256"
        }
      ],
      "name": "tokenSold",
      "type": "event"
    },
    {
      "inputs": [
        {
          "internalType": "uint256",
          "name": "",
          "type": "uint256"
        }
      ],
      "name": "activeSale",
      "outputs": [
        {
          "internalType": "bool",
          "name": "",
          "type": "bool"
        }
      ],
      "stateMutability": "view",
      "type": "function",
      "constant": true
    },
    {
      "inputs": [
        {
          "internalType": "uint256",
          "name": "",
          "type": "uint256"
        }
      ],
      "name": "tokensOnSale",
      "outputs": [
        {
          "internalType": "uint256",
          "name": "id",
          "type": "uint256"
        },
        {
          "internalType": "uint256",
          "name": "tokenId",
          "type": "uint256"
        },
        {
          "internalType": "address payable",
          "name": "seller",
          "type": "address"
        },
        {
          "internalType": "uint256",
          "name": "price",
          "type": "uint256"
        },
        {
          "internalType": "bool",
          "name": "isSold",
          "type": "bool"
        }
      ],
      "stateMutability": "view",
      "type": "function",
      "constant": true
    },
    {
      "inputs": [
        {
          "internalType": "uint256",
          "name": "tokenId",
          "type": "uint256"
        },
        {
          "internalType": "uint256",
          "name": "price",
          "type": "uint256"
        }
      ],
      "name": "putTokenOnSale",
      "outputs": [
        {
          "internalType": "uint256",
          "name": "",
          "type": "uint256"
        }
      ],
      "stateMutability": "nonpayable",
      "type": "function"
    },
    {
      "inputs": [
        {
          "internalType": "uint256",
          "name": "id",
          "type": "uint256"
        }
      ],
      "name": "buyToken",
      "outputs": [],
      "stateMutability": "payable",
      "type": "function",
      "payable": true
    },
    {
      "inputs": [],
      "name": "totalItemsForSale",
      "outputs": [
        {
          "internalType": "uint256",
          "name": "",
          "type": "uint256"
        }
      ],
      "stateMutability": "view",
      "type": "function",
      "constant": true
    }
  ],
  "bytecode": "0x60806040523480156200001157600080fd5b506040516200147a3803806200147a8339818101604052810190620000379190620000fc565b806000806101000a81548173ffffffffffffffffffffffffffffffffffffffff021916908373ffffffffffffffffffffffffffffffffffffffff160217905550506200012e565b600080fd5b600073ffffffffffffffffffffffffffffffffffffffff82169050919050565b6000620000b08262000083565b9050919050565b6000620000c482620000a3565b9050919050565b620000d681620000b7565b8114620000e257600080fd5b50565b600081519050620000f681620000cb565b92915050565b6000602082840312156200011557620001146200007e565b5b60006200012584828501620000e5565b91505092915050565b61133c806200013e6000396000f3fe60806040526004361061004a5760003560e01c80632d296bf11461004f578063308b4c971461006b57806365af3798146100ac578063776212ee146100e9578063ec8120c914610126575b600080fd5b61006960048036038101906100649190610be6565b610151565b005b34801561007757600080fd5b50610092600480360381019061008d9190610be6565b6106f8565b6040516100a3959493929190610c7e565b60405180910390f35b3480156100b857600080fd5b506100d360048036038101906100ce9190610cd1565b61076b565b6040516100e09190610d11565b60405180910390f35b3480156100f557600080fd5b50610110600480360381019061010b9190610be6565b610b7e565b60405161011d9190610d2c565b60405180910390f35b34801561013257600080fd5b5061013b610b9e565b6040516101489190610d11565b60405180910390f35b600180549050811080156101895750806001828154811061017557610174610d47565b5b906000526020600020906005020160000154145b6101c8576040517f08c379a00000000000000000000000000000000000000000000000000000000081526004016101bf90610dd3565b60405180910390fd5b600181815481106101dc576101db610d47565b5b906000526020600020906005020160040160009054906101000a900460ff161561023b576040517f08c379a000000000000000000000000000000000000000000000000000000000815260040161023290610e3f565b60405180910390fd5b3073ffffffffffffffffffffffffffffffffffffffff1660008054906101000a900473ffffffffffffffffffffffffffffffffffffffff1673ffffffffffffffffffffffffffffffffffffffff1663081812fc600184815481106102a2576102a1610d47565b5b9060005260206000209060050201600101546040518263ffffffff1660e01b81526004016102d09190610d11565b602060405180830381865afa1580156102ed573d6000803e3d6000fd5b505050506040513d601f19601f820116820180604052508101906103119190610e9d565b73ffffffffffffffffffffffffffffffffffffffff1614610367576040517f08c379a000000000000000000000000000000000000000000000000000000000815260040161035e90610f3c565b60405180910390fd5b6001818154811061037b5761037a610d47565b5b9060005260206000209060050201600301543410156103cf576040517f08c379a00000000000000000000000000000000000000000000000000000000081526004016103c690610fa8565b60405180910390fd5b600181815481106103e3576103e2610d47565b5b906000526020600020906005020160020160009054906101000a900473ffffffffffffffffffffffffffffffffffffffff1673ffffffffffffffffffffffffffffffffffffffff163373ffffffffffffffffffffffffffffffffffffffff1603610482576040517f08c379a000000000000000000000000000000000000000000000000000000000815260040161047990611014565b60405180910390fd5b600180828154811061049757610496610d47565b5b906000526020600020906005020160040160006101000a81548160ff021916908315150217905550600060026000600184815481106104d9576104d8610d47565b5b906000526020600020906005020160010154815260200190815260200160002060006101000a81548160ff02191690831515021790555060008054906101000a900473ffffffffffffffffffffffffffffffffffffffff1673ffffffffffffffffffffffffffffffffffffffff166342842e0e600183815481106105605761055f610d47565b5b906000526020600020906005020160020160009054906101000a900473ffffffffffffffffffffffffffffffffffffffff1633600185815481106105a7576105a6610d47565b5b9060005260206000209060050201600101546040518463ffffffff1660e01b81526004016105d7939291906110a2565b600060405180830381600087803b1580156105f157600080fd5b505af1158015610605573d6000803e3d6000fd5b505050506001818154811061061d5761061c610d47565b5b906000526020600020906005020160020160009054906101000a900473ffffffffffffffffffffffffffffffffffffffff1673ffffffffffffffffffffffffffffffffffffffff166108fc349081150290604051600060405180830381858888f19350505050158015610694573d6000803e3d6000fd5b507f4a1ae11fd0685aee23054856e6ae358072c3aa7bce2103ee20bdd0920272ef608133600184815481106106cc576106cb610d47565b5b9060005260206000209060050201600301546040516106ed939291906110d9565b60405180910390a150565b6001818154811061070857600080fd5b90600052602060002090600502016000915090508060000154908060010154908060020160009054906101000a900473ffffffffffffffffffffffffffffffffffffffff16908060030154908060040160009054906101000a900460ff16905085565b60003373ffffffffffffffffffffffffffffffffffffffff1660008054906101000a900473ffffffffffffffffffffffffffffffffffffffff1673ffffffffffffffffffffffffffffffffffffffff16636352211e856040518263ffffffff1660e01b81526004016107dd9190610d11565b602060405180830381865afa1580156107fa573d6000803e3d6000fd5b505050506040513d601f19601f8201168201806040525081019061081e9190610e9d565b73ffffffffffffffffffffffffffffffffffffffff1614610874576040517f08c379a000000000000000000000000000000000000000000000000000000000815260040161086b90611182565b60405180910390fd5b3073ffffffffffffffffffffffffffffffffffffffff1660008054906101000a900473ffffffffffffffffffffffffffffffffffffffff1673ffffffffffffffffffffffffffffffffffffffff1663081812fc856040518263ffffffff1660e01b81526004016108e49190610d11565b602060405180830381865afa158015610901573d6000803e3d6000fd5b505050506040513d601f19601f820116820180604052508101906109259190610e9d565b73ffffffffffffffffffffffffffffffffffffffff161461097b576040517f08c379a000000000000000000000000000000000000000000000000000000000815260040161097290611214565b60405180910390fd5b6002600084815260200190815260200160002060009054906101000a900460ff16156109dc576040517f08c379a00000000000000000000000000000000000000000000000000000000081526004016109d390611280565b60405180910390fd5b6000600180549050905060016040518060a001604052808381526020018681526020013373ffffffffffffffffffffffffffffffffffffffff168152602001858152602001600015158152509080600181540180825580915050600190039060005260206000209060050201600090919091909150600082015181600001556020820151816001015560408201518160020160006101000a81548173ffffffffffffffffffffffffffffffffffffffff021916908373ffffffffffffffffffffffffffffffffffffffff1602179055506060820151816003015560808201518160040160006101000a81548160ff021916908315150217905550505060016002600086815260200190815260200160002060006101000a81548160ff0219169083151502179055508060018281548110610b1957610b18610d47565b5b90600052602060002090600502016000015414610b3957610b386112a0565b5b7f4505999be4ad26db9a6a0f7989407c2b14a7a3765e6758a4a15d1064214f3193818585604051610b6c939291906112cf565b60405180910390a18091505092915050565b60026020528060005260406000206000915054906101000a900460ff1681565b6000600180549050905090565b600080fd5b6000819050919050565b610bc381610bb0565b8114610bce57600080fd5b50565b600081359050610be081610bba565b92915050565b600060208284031215610bfc57610bfb610bab565b5b6000610c0a84828501610bd1565b91505092915050565b610c1c81610bb0565b82525050565b600073ffffffffffffffffffffffffffffffffffffffff82169050919050565b6000610c4d82610c22565b9050919050565b610c5d81610c42565b82525050565b60008115159050919050565b610c7881610c63565b82525050565b600060a082019050610c936000830188610c13565b610ca06020830187610c13565b610cad6040830186610c54565b610cba6060830185610c13565b610cc76080830184610c6f565b9695505050505050565b60008060408385031215610ce857610ce7610bab565b5b6000610cf685828601610bd1565b9250506020610d0785828601610bd1565b9150509250929050565b6000602082019050610d266000830184610c13565b92915050565b6000602082019050610d416000830184610c6f565b92915050565b7f4e487b7100000000000000000000000000000000000000000000000000000000600052603260045260246000fd5b600082825260208201905092915050565b7f546f6b656e206e6f74206f6e2073616c65000000000000000000000000000000600082015250565b6000610dbd601183610d76565b9150610dc882610d87565b602082019050919050565b60006020820190508181036000830152610dec81610db0565b9050919050565b7f4974656d20697320616c726561647920736f6c64000000000000000000000000600082015250565b6000610e29601483610d76565b9150610e3482610df3565b602082019050919050565b60006020820190508181036000830152610e5881610e1c565b9050919050565b6000610e6a82610c22565b9050919050565b610e7a81610e5f565b8114610e8557600080fd5b50565b600081519050610e9781610e71565b92915050565b600060208284031215610eb357610eb2610bab565b5b6000610ec184828501610e88565b91505092915050565b7f546f6b656e206e6f7420617070726f7665642062792074686520636f6e74726160008201527f63742e0000000000000000000000000000000000000000000000000000000000602082015250565b6000610f26602383610d76565b9150610f3182610eca565b604082019050919050565b60006020820190508181036000830152610f5581610f19565b9050919050565b7f4e6f7420656e6f7567682066756e647320706169640000000000000000000000600082015250565b6000610f92601583610d76565b9150610f9d82610f5c565b602082019050919050565b60006020820190508181036000830152610fc181610f85565b9050919050565b7f73656c6c65722063616e6e6f7420626520746865206275796572000000000000600082015250565b6000610ffe601a83610d76565b915061100982610fc8565b602082019050919050565b6000602082019050818103600083015261102d81610ff1565b9050919050565b6000819050919050565b600061105961105461104f84610c22565b611034565b610c22565b9050919050565b600061106b8261103e565b9050919050565b600061107d82611060565b9050919050565b61108d81611072565b82525050565b61109c81610e5f565b82525050565b60006060820190506110b76000830186611084565b6110c46020830185611093565b6110d16040830184610c13565b949350505050565b60006060820190506110ee6000830186610c13565b6110fb6020830185611093565b6111086040830184610c13565b949350505050565b7f546f6b656e206973206e6f74206f776e6564206279207468652073656c6c657260008201527f2e00000000000000000000000000000000000000000000000000000000000000602082015250565b600061116c602183610d76565b915061117782611110565b604082019050919050565b6000602082019050818103600083015261119b8161115f565b9050919050565b7f546f6b656e20206973206e6f7420617070726f7665642062792074686520636f60008201527f6e74726163742e00000000000000000000000000000000000000000000000000602082015250565b60006111fe602783610d76565b9150611209826111a2565b604082019050919050565b6000602082019050818103600083015261122d816111f1565b9050919050565b7f546f6b656e20697320616c726561647920757020666f722073616c6500000000600082015250565b600061126a601c83610d76565b915061127582611234565b602082019050919050565b600060208201905081810360008301526112998161125d565b9050919050565b7f4e487b7100000000000000000000000000000000000000000000000000000000600052600160045260246000fd5b60006060820190506112e46000830186610c13565b6112f16020830185610c13565b6112fe6040830184610c13565b94935050505056fea264697066735822122091775ac6c4a945ed488154f8f4acc17b5e0593c85ed073081446c5cabe937d2764736f6c63430008110033",
  "immutableReferences": {},
  "source": "// SPDX-License-Identifier: MIT\npragma solidity ^0.8.0;\n\nimport \"./MyToken.sol\";\n\ncontract MyMarketplace {\n\n  MyToken private token;\n\n  //for tokens that are on sale\n  struct tokenOnSale {\n    uint256 id;\n    uint256 tokenId;\n    address payable seller;\n    uint256 price;\n    bool isSold;\n  }\n\n  tokenOnSale[] public tokensOnSale;\n\n  mapping(uint256 => bool) public activeSale; // which tokens are still on sale\n\n  event tokenAddedForSale(uint256 id, uint256 tokenId, uint256 price);\n  event tokenSold(uint256 id, address buyer, uint256 price);\n\n  constructor(MyToken _token) {\n      token = _token;\n  }\n\n  function putTokenOnSale(uint256 tokenId, uint256 price) external returns (uint256) {\n\n    require(token.ownerOf(tokenId) == msg.sender, \"Token is not owned by the seller.\");\n    require(token.getApproved(tokenId) == address(this), \"Token  is not approved by the contract.\");\n    require(!activeSale[tokenId], \"Token is already up for sale\");\n\n    uint256 newTokenId = tokensOnSale.length;\n    \n    tokensOnSale.push(tokenOnSale({\n        id: newTokenId,\n        tokenId: tokenId,\n        seller: payable(msg.sender),\n        price: price,\n        isSold: false\n      }));\n\n    activeSale[tokenId] = true;\n\n    assert(tokensOnSale[newTokenId].id == newTokenId);\n    emit tokenAddedForSale(newTokenId, tokenId, price);\n    return newTokenId;\n  }\n\n  function buyToken(uint id) payable external{\n\n    require(id < tokensOnSale.length && tokensOnSale[id].id == id, \"Token not on sale\");\n    require(!tokensOnSale[id].isSold, \"Item is already sold\");\n    require(token.getApproved(tokensOnSale[id].tokenId) == address(this), \"Token not approved by the contract.\");\n\n    require(msg.value >= tokensOnSale[id].price, \"Not enough funds paid\");\n    require(msg.sender != tokensOnSale[id].seller, \"seller cannot be the buyer\");\n\n    tokensOnSale[id].isSold = true;\n\n    activeSale[tokensOnSale[id].tokenId] = false;\n\n    token.safeTransferFrom(tokensOnSale[id].seller, msg.sender, tokensOnSale[id].tokenId);\n    \n    tokensOnSale[id].seller.transfer(msg.value);\n\n    emit tokenSold(id, msg.sender, tokensOnSale[id].price);\n  }\n\n  function totalItemsForSale() external view returns(uint256) {\n    return tokensOnSale.length;\n  }\n}\n",
  "sourcePath": "/Users/guneet/Downloads/Fall2022/myproject/Marketplace/contracts/MyMarketplace.sol",
  "compiler": {
    "name": "solc",
    "version": "0.8.17+commit.8df45f5f.Emscripten.clang"
  },
  "schemaVersion": "3.4.10",
  "updatedAt": "2022-12-10T07:00:32.479Z",
  "networkType": "ethereum",
  "devdoc": {
    "kind": "dev",
    "methods": {},
    "version": 1
  },
  "userdoc": {
    "kind": "user",
    "methods": {},
    "version": 1
  }
}