{
  "contractName": "MyToken",
  "abi": [
    {
      "inputs": [],
      "stateMutability": "nonpayable",
      "type": "constructor"
    },
    {
      "anonymous": false,
      "inputs": [
        {
          "indexed": true,
          "internalType": "address",
          "name": "owner",
          "type": "address"
        },
        {
          "indexed": true,
          "internalType": "address",
          "name": "approved",
          "type": "address"
        },
        {
          "indexed": true,
          "internalType": "uint256",
          "name": "tokenId",
          "type": "uint256"
        }
      ],
      "name": "Approval",
      "type": "event"
    },
    {
      "anonymous": false,
      "inputs": [
        {
          "indexed": true,
          "internalType": "address",
          "name": "owner",
          "type": "address"
        },
        {
          "indexed": true,
          "internalType": "address",
          "name": "operator",
          "type": "address"
        },
        {
          "indexed": false,
          "internalType": "bool",
          "name": "approved",
          "type": "bool"
        }
      ],
      "name": "ApprovalForAll",
      "type": "event"
    },
    {
      "anonymous": false,
      "inputs": [
        {
          "indexed": true,
          "internalType": "address",
          "name": "from",
          "type": "address"
        },
        {
          "indexed": true,
          "internalType": "address",
          "name": "to",
          "type": "address"
        },
        {
          "indexed": true,
          "internalType": "uint256",
          "name": "tokenId",
          "type": "uint256"
        }
      ],
      "name": "Transfer",
      "type": "event"
    },
    {
      "inputs": [
        {
          "internalType": "address",
          "name": "to",
          "type": "address"
        },
        {
          "internalType": "uint256",
          "name": "tokenId",
          "type": "uint256"
        }
      ],
      "name": "approve",
      "outputs": [],
      "stateMutability": "nonpayable",
      "type": "function"
    },
    {
      "inputs": [
        {
          "internalType": "address",
          "name": "owner",
          "type": "address"
        }
      ],
      "name": "balanceOf",
      "outputs": [
        {
          "internalType": "uint256",
          "name": "",
          "type": "uint256"
        }
      ],
      "stateMutability": "view",
      "type": "function"
    },
    {
      "inputs": [],
      "name": "contract_owner",
      "outputs": [
        {
          "internalType": "address",
          "name": "",
          "type": "address"
        }
      ],
      "stateMutability": "view",
      "type": "function"
    },
    {
      "inputs": [
        {
          "internalType": "uint256",
          "name": "tokenId",
          "type": "uint256"
        }
      ],
      "name": "getApproved",
      "outputs": [
        {
          "internalType": "address",
          "name": "",
          "type": "address"
        }
      ],
      "stateMutability": "view",
      "type": "function"
    },
    {
      "inputs": [
        {
          "internalType": "address",
          "name": "owner",
          "type": "address"
        },
        {
          "internalType": "address",
          "name": "operator",
          "type": "address"
        }
      ],
      "name": "isApprovedForAll",
      "outputs": [
        {
          "internalType": "bool",
          "name": "",
          "type": "bool"
        }
      ],
      "stateMutability": "view",
      "type": "function"
    },
    {
      "inputs": [
        {
          "internalType": "uint256",
          "name": "",
          "type": "uint256"
        }
      ],
      "name": "mapping_of_tokens",
      "outputs": [
        {
          "internalType": "uint256",
          "name": "id",
          "type": "uint256"
        },
        {
          "internalType": "address",
          "name": "creator",
          "type": "address"
        },
        {
          "internalType": "string",
          "name": "url",
          "type": "string"
        }
      ],
      "stateMutability": "view",
      "type": "function"
    },
    {
      "inputs": [],
      "name": "name",
      "outputs": [
        {
          "internalType": "string",
          "name": "",
          "type": "string"
        }
      ],
      "stateMutability": "view",
      "type": "function"
    },
    {
      "inputs": [
        {
          "internalType": "uint256",
          "name": "tokenId",
          "type": "uint256"
        }
      ],
      "name": "ownerOf",
      "outputs": [
        {
          "internalType": "address",
          "name": "",
          "type": "address"
        }
      ],
      "stateMutability": "view",
      "type": "function"
    },
    {
      "inputs": [
        {
          "internalType": "address",
          "name": "from",
          "type": "address"
        },
        {
          "internalType": "address",
          "name": "to",
          "type": "address"
        },
        {
          "internalType": "uint256",
          "name": "tokenId",
          "type": "uint256"
        }
      ],
      "name": "safeTransferFrom",
      "outputs": [],
      "stateMutability": "nonpayable",
      "type": "function"
    },
    {
      "inputs": [
        {
          "internalType": "address",
          "name": "from",
          "type": "address"
        },
        {
          "internalType": "address",
          "name": "to",
          "type": "address"
        },
        {
          "internalType": "uint256",
          "name": "tokenId",
          "type": "uint256"
        },
        {
          "internalType": "bytes",
          "name": "data",
          "type": "bytes"
        }
      ],
      "name": "safeTransferFrom",
      "outputs": [],
      "stateMutability": "nonpayable",
      "type": "function"
    },
    {
      "inputs": [
        {
          "internalType": "address",
          "name": "operator",
          "type": "address"
        },
        {
          "internalType": "bool",
          "name": "approved",
          "type": "bool"
        }
      ],
      "name": "setApprovalForAll",
      "outputs": [],
      "stateMutability": "nonpayable",
      "type": "function"
    },
    {
      "inputs": [
        {
          "internalType": "bytes4",
          "name": "interfaceId",
          "type": "bytes4"
        }
      ],
      "name": "supportsInterface",
      "outputs": [
        {
          "internalType": "bool",
          "name": "",
          "type": "bool"
        }
      ],
      "stateMutability": "view",
      "type": "function"
    },
    {
      "inputs": [],
      "name": "symbol",
      "outputs": [
        {
          "internalType": "string",
          "name": "",
          "type": "string"
        }
      ],
      "stateMutability": "view",
      "type": "function"
    },
    {
      "inputs": [
        {
          "internalType": "uint256",
          "name": "index",
          "type": "uint256"
        }
      ],
      "name": "tokenByIndex",
      "outputs": [
        {
          "internalType": "uint256",
          "name": "",
          "type": "uint256"
        }
      ],
      "stateMutability": "view",
      "type": "function"
    },
    {
      "inputs": [
        {
          "internalType": "address",
          "name": "owner",
          "type": "address"
        },
        {
          "internalType": "uint256",
          "name": "index",
          "type": "uint256"
        }
      ],
      "name": "tokenOfOwnerByIndex",
      "outputs": [
        {
          "internalType": "uint256",
          "name": "",
          "type": "uint256"
        }
      ],
      "stateMutability": "view",
      "type": "function"
    },
    {
      "inputs": [],
      "name": "totalSupply",
      "outputs": [
        {
          "internalType": "uint256",
          "name": "",
          "type": "uint256"
        }
      ],
      "stateMutability": "view",
      "type": "function"
    },
    {
      "inputs": [
        {
          "internalType": "address",
          "name": "from",
          "type": "address"
        },
        {
          "internalType": "address",
          "name": "to",
          "type": "address"
        },
        {
          "internalType": "uint256",
          "name": "tokenId",
          "type": "uint256"
        }
      ],
      "name": "transferFrom",
      "outputs": [],
      "stateMutability": "nonpayable",
      "type": "function"
    },
    {
      "inputs": [
        {
          "internalType": "string",
          "name": "url",
          "type": "string"
        }
      ],
      "name": "mint",
      "outputs": [
        {
          "internalType": "uint256",
          "name": "",
          "type": "uint256"
        }
      ],
      "stateMutability": "nonpayable",
      "type": "function"
    },
    {
      "inputs": [
        {
          "internalType": "uint256",
          "name": "tokenId",
          "type": "uint256"
        }
      ],
      "name": "tokenURI",
      "outputs": [
        {
          "internalType": "string",
          "name": "",
          "type": "string"
        }
      ],
      "stateMutability": "view",
      "type": "function"
    },
    {
      "inputs": [
        {
          "internalType": "address",
          "name": "market",
          "type": "address"
        }
      ],
      "name": "setMarketplace",
      "outputs": [],
      "stateMutability": "nonpayable",
      "type": "function"
    }
  ],
  "bytecode": "0x60806040523480156200001157600080fd5b506040518060400160405280600781526020017f4d79546f6b656e000000000000000000000000000000000000000000000000008152506040518060400160405280600581526020017f4e6f74657300000000000000000000000000000000000000000000000000000081525081600090816200008f919062000324565b508060019081620000a1919062000324565b5050506200040b565b600081519050919050565b7f4e487b7100000000000000000000000000000000000000000000000000000000600052604160045260246000fd5b7f4e487b7100000000000000000000000000000000000000000000000000000000600052602260045260246000fd5b600060028204905060018216806200012c57607f821691505b602082108103620001425762000141620000e4565b5b50919050565b60008190508160005260206000209050919050565b60006020601f8301049050919050565b600082821b905092915050565b600060088302620001ac7fffffffffffffffffffffffffffffffffffffffffffffffffffffffffffffffff826200016d565b620001b886836200016d565b95508019841693508086168417925050509392505050565b6000819050919050565b6000819050919050565b600062000205620001ff620001f984620001d0565b620001da565b620001d0565b9050919050565b6000819050919050565b6200022183620001e4565b6200023962000230826200020c565b8484546200017a565b825550505050565b600090565b6200025062000241565b6200025d81848462000216565b505050565b5b8181101562000285576200027960008262000246565b60018101905062000263565b5050565b601f821115620002d4576200029e8162000148565b620002a9846200015d565b81016020851015620002b9578190505b620002d1620002c8856200015d565b83018262000262565b50505b505050565b600082821c905092915050565b6000620002f960001984600802620002d9565b1980831691505092915050565b6000620003148383620002e6565b9150826002028217905092915050565b6200032f82620000aa565b67ffffffffffffffff8111156200034b576200034a620000b5565b5b62000357825462000113565b6200036482828562000289565b600060209050601f8311600181146200039c576000841562000387578287015190505b62000393858262000306565b86555062000403565b601f198416620003ac8662000148565b60005b82811015620003d657848901518255600182019150602085019450602081019050620003af565b86831015620003f65784890151620003f2601f891682620002e6565b8355505b6001600288020188555050505b505050505050565b613431806200041b6000396000f3fe608060405234801561001057600080fd5b506004361061012c5760003560e01c80636352211e116100ad578063b88d4fde11610071578063b88d4fde14610355578063c87b56dd14610371578063d85d3d27146103a1578063e985e9c5146103d1578063f890e54b146104015761012c565b80636352211e1461029f57806370a08231146102cf57806373ad6c2d146102ff57806395d89b411461031b578063a22cb465146103395761012c565b806323b872dd116100f457806323b872dd146101e95780632f745c5914610205578063384f58eb1461023557806342842e0e146102535780634f6ccce71461026f5761012c565b806301ffc9a71461013157806306fdde0314610161578063081812fc1461017f578063095ea7b3146101af57806318160ddd146101cb575b600080fd5b61014b600480360381019061014691906120d9565b610433565b6040516101589190612121565b60405180910390f35b6101696104ad565b60405161017691906121cc565b60405180910390f35b61019960048036038101906101949190612224565b61053f565b6040516101a69190612292565b60405180910390f35b6101c960048036038101906101c491906122d9565b610585565b005b6101d361069c565b6040516101e09190612328565b60405180910390f35b61020360048036038101906101fe9190612343565b6106a9565b005b61021f600480360381019061021a91906122d9565b610709565b60405161022c9190612328565b60405180910390f35b61023d6107ae565b60405161024a9190612292565b60405180910390f35b61026d60048036038101906102689190612343565b6107d4565b005b61028960048036038101906102849190612224565b6107f4565b6040516102969190612328565b60405180910390f35b6102b960048036038101906102b49190612224565b610865565b6040516102c69190612292565b60405180910390f35b6102e960048036038101906102e49190612396565b6108eb565b6040516102f69190612328565b60405180910390f35b61031960048036038101906103149190612396565b6109a2565b005b6103236109e6565b60405161033091906121cc565b60405180910390f35b610353600480360381019061034e91906123ef565b610a78565b005b61036f600480360381019061036a9190612564565b610a8e565b005b61038b60048036038101906103869190612224565b610af0565b60405161039891906121cc565b60405180910390f35b6103bb60048036038101906103b69190612688565b610be0565b6040516103c89190612328565b60405180910390f35b6103eb60048036038101906103e691906126d1565b610ce7565b6040516103f89190612121565b60405180910390f35b61041b60048036038101906104169190612224565b610d7b565b60405161042a93929190612711565b60405180910390f35b60007f780e9d63000000000000000000000000000000000000000000000000000000007bffffffffffffffffffffffffffffffffffffffffffffffffffffffff1916827bffffffffffffffffffffffffffffffffffffffffffffffffffffffff191614806104a657506104a582610e4d565b5b9050919050565b6060600080546104bc9061277e565b80601f01602080910402602001604051908101604052809291908181526020018280546104e89061277e565b80156105355780601f1061050a57610100808354040283529160200191610535565b820191906000526020600020905b81548152906001019060200180831161051857829003601f168201915b5050505050905090565b600061054a82610f2f565b6004600083815260200190815260200160002060009054906101000a900473ffffffffffffffffffffffffffffffffffffffff169050919050565b600061059082610865565b90508073ffffffffffffffffffffffffffffffffffffffff168373ffffffffffffffffffffffffffffffffffffffff1603610600576040517f08c379a00000000000000000000000000000000000000000000000000000000081526004016105f790612821565b60405180910390fd5b8073ffffffffffffffffffffffffffffffffffffffff1661061f610f7a565b73ffffffffffffffffffffffffffffffffffffffff16148061064e575061064d81610648610f7a565b610ce7565b5b61068d576040517f08c379a0000000000000000000000000000000000000000000000000000000008152600401610684906128b3565b60405180910390fd5b6106978383610f82565b505050565b6000600880549050905090565b6106ba6106b4610f7a565b8261103b565b6106f9576040517f08c379a00000000000000000000000000000000000000000000000000000000081526004016106f090612945565b60405180910390fd5b6107048383836110d0565b505050565b6000610714836108eb565b8210610755576040517f08c379a000000000000000000000000000000000000000000000000000000000815260040161074c906129d7565b60405180910390fd5b600660008473ffffffffffffffffffffffffffffffffffffffff1673ffffffffffffffffffffffffffffffffffffffff168152602001908152602001600020600083815260200190815260200160002054905092915050565b600b60009054906101000a900473ffffffffffffffffffffffffffffffffffffffff1681565b6107ef83838360405180602001604052806000815250610a8e565b505050565b60006107fe61069c565b821061083f576040517f08c379a000000000000000000000000000000000000000000000000000000000815260040161083690612a69565b60405180910390fd5b6008828154811061085357610852612a89565b5b90600052602060002001549050919050565b600080610871836113c9565b9050600073ffffffffffffffffffffffffffffffffffffffff168173ffffffffffffffffffffffffffffffffffffffff16036108e2576040517f08c379a00000000000000000000000000000000000000000000000000000000081526004016108d990612b04565b60405180910390fd5b80915050919050565b60008073ffffffffffffffffffffffffffffffffffffffff168273ffffffffffffffffffffffffffffffffffffffff160361095b576040517f08c379a000000000000000000000000000000000000000000000000000000000815260040161095290612b96565b60405180910390fd5b600360008373ffffffffffffffffffffffffffffffffffffffff1673ffffffffffffffffffffffffffffffffffffffff168152602001908152602001600020549050919050565b80600b60006101000a81548173ffffffffffffffffffffffffffffffffffffffff021916908373ffffffffffffffffffffffffffffffffffffffff16021790555050565b6060600180546109f59061277e565b80601f0160208091040260200160405190810160405280929190818152602001828054610a219061277e565b8015610a6e5780601f10610a4357610100808354040283529160200191610a6e565b820191906000526020600020905b815481529060010190602001808311610a5157829003601f168201915b5050505050905090565b610a8a610a83610f7a565b8383611406565b5050565b610a9f610a99610f7a565b8361103b565b610ade576040517f08c379a0000000000000000000000000000000000000000000000000000000008152600401610ad590612945565b60405180910390fd5b610aea84848484611572565b50505050565b6060610afb826115ce565b610b3a576040517f08c379a0000000000000000000000000000000000000000000000000000000008152600401610b3190612c28565b60405180910390fd5b600c60008381526020019081526020016000206002018054610b5b9061277e565b80601f0160208091040260200160405190810160405280929190818152602001828054610b879061277e565b8015610bd45780601f10610ba957610100808354040283529160200191610bd4565b820191906000526020600020905b815481529060010190602001808311610bb757829003601f168201915b50505050509050919050565b6000610bec600a61160f565b6000610bf8600a611625565b9050610c043382611633565b610c30600b60009054906101000a900473ffffffffffffffffffffffffffffffffffffffff1682610585565b60405180606001604052808281526020013373ffffffffffffffffffffffffffffffffffffffff16815260200184815250600c60008381526020019081526020016000206000820151816000015560208201518160010160006101000a81548173ffffffffffffffffffffffffffffffffffffffff021916908373ffffffffffffffffffffffffffffffffffffffff1602179055506040820151816002019081610cda9190612df4565b5090505080915050919050565b6000600560008473ffffffffffffffffffffffffffffffffffffffff1673ffffffffffffffffffffffffffffffffffffffff16815260200190815260200160002060008373ffffffffffffffffffffffffffffffffffffffff1673ffffffffffffffffffffffffffffffffffffffff16815260200190815260200160002060009054906101000a900460ff16905092915050565b600c6020528060005260406000206000915090508060000154908060010160009054906101000a900473ffffffffffffffffffffffffffffffffffffffff1690806002018054610dca9061277e565b80601f0160208091040260200160405190810160405280929190818152602001828054610df69061277e565b8015610e435780601f10610e1857610100808354040283529160200191610e43565b820191906000526020600020905b815481529060010190602001808311610e2657829003601f168201915b5050505050905083565b60007f80ac58cd000000000000000000000000000000000000000000000000000000007bffffffffffffffffffffffffffffffffffffffffffffffffffffffff1916827bffffffffffffffffffffffffffffffffffffffffffffffffffffffff19161480610f1857507f5b5e139f000000000000000000000000000000000000000000000000000000007bffffffffffffffffffffffffffffffffffffffffffffffffffffffff1916827bffffffffffffffffffffffffffffffffffffffffffffffffffffffff1916145b80610f285750610f2782611651565b5b9050919050565b610f38816115ce565b610f77576040517f08c379a0000000000000000000000000000000000000000000000000000000008152600401610f6e90612b04565b60405180910390fd5b50565b600033905090565b816004600083815260200190815260200160002060006101000a81548173ffffffffffffffffffffffffffffffffffffffff021916908373ffffffffffffffffffffffffffffffffffffffff160217905550808273ffffffffffffffffffffffffffffffffffffffff16610ff583610865565b73ffffffffffffffffffffffffffffffffffffffff167f8c5be1e5ebec7d5bd14f71427d1e84f3dd0314c0f7b2291e5b200ac8c7c3b92560405160405180910390a45050565b60008061104783610865565b90508073ffffffffffffffffffffffffffffffffffffffff168473ffffffffffffffffffffffffffffffffffffffff16148061108957506110888185610ce7565b5b806110c757508373ffffffffffffffffffffffffffffffffffffffff166110af8461053f565b73ffffffffffffffffffffffffffffffffffffffff16145b91505092915050565b8273ffffffffffffffffffffffffffffffffffffffff166110f082610865565b73ffffffffffffffffffffffffffffffffffffffff1614611146576040517f08c379a000000000000000000000000000000000000000000000000000000000815260040161113d90612f38565b60405180910390fd5b600073ffffffffffffffffffffffffffffffffffffffff168273ffffffffffffffffffffffffffffffffffffffff16036111b5576040517f08c379a00000000000000000000000000000000000000000000000000000000081526004016111ac90612fca565b60405180910390fd5b6111c283838360016116bb565b8273ffffffffffffffffffffffffffffffffffffffff166111e282610865565b73ffffffffffffffffffffffffffffffffffffffff1614611238576040517f08c379a000000000000000000000000000000000000000000000000000000000815260040161122f90612f38565b60405180910390fd5b6004600082815260200190815260200160002060006101000a81549073ffffffffffffffffffffffffffffffffffffffff02191690556001600360008573ffffffffffffffffffffffffffffffffffffffff1673ffffffffffffffffffffffffffffffffffffffff168152602001908152602001600020600082825403925050819055506001600360008473ffffffffffffffffffffffffffffffffffffffff1673ffffffffffffffffffffffffffffffffffffffff16815260200190815260200160002060008282540192505081905550816002600083815260200190815260200160002060006101000a81548173ffffffffffffffffffffffffffffffffffffffff021916908373ffffffffffffffffffffffffffffffffffffffff160217905550808273ffffffffffffffffffffffffffffffffffffffff168473ffffffffffffffffffffffffffffffffffffffff167fddf252ad1be2c89b69c2b068fc378daa952ba7f163c4a11628f55a4df523b3ef60405160405180910390a46113c48383836001611819565b505050565b60006002600083815260200190815260200160002060009054906101000a900473ffffffffffffffffffffffffffffffffffffffff169050919050565b8173ffffffffffffffffffffffffffffffffffffffff168373ffffffffffffffffffffffffffffffffffffffff1603611474576040517f08c379a000000000000000000000000000000000000000000000000000000000815260040161146b90613036565b60405180910390fd5b80600560008573ffffffffffffffffffffffffffffffffffffffff1673ffffffffffffffffffffffffffffffffffffffff16815260200190815260200160002060008473ffffffffffffffffffffffffffffffffffffffff1673ffffffffffffffffffffffffffffffffffffffff16815260200190815260200160002060006101000a81548160ff0219169083151502179055508173ffffffffffffffffffffffffffffffffffffffff168373ffffffffffffffffffffffffffffffffffffffff167f17307eab39ab6107e8899845ad3d59bd9653f200f220920489ca2b5937696c31836040516115659190612121565b60405180910390a3505050565b61157d8484846110d0565b6115898484848461181f565b6115c8576040517f08c379a00000000000000000000000000000000000000000000000000000000081526004016115bf906130c8565b60405180910390fd5b50505050565b60008073ffffffffffffffffffffffffffffffffffffffff166115f0836113c9565b73ffffffffffffffffffffffffffffffffffffffff1614159050919050565b6001816000016000828254019250508190555050565b600081600001549050919050565b61164d8282604051806020016040528060008152506119a6565b5050565b60007f01ffc9a7000000000000000000000000000000000000000000000000000000007bffffffffffffffffffffffffffffffffffffffffffffffffffffffff1916827bffffffffffffffffffffffffffffffffffffffffffffffffffffffff1916149050919050565b6116c784848484611a01565b600181111561170b576040517f08c379a00000000000000000000000000000000000000000000000000000000081526004016117029061315a565b60405180910390fd5b6000829050600073ffffffffffffffffffffffffffffffffffffffff168573ffffffffffffffffffffffffffffffffffffffff16036117525761174d81611b27565b611791565b8373ffffffffffffffffffffffffffffffffffffffff168573ffffffffffffffffffffffffffffffffffffffff16146117905761178f8582611b70565b5b5b600073ffffffffffffffffffffffffffffffffffffffff168473ffffffffffffffffffffffffffffffffffffffff16036117d3576117ce81611cdd565b611812565b8473ffffffffffffffffffffffffffffffffffffffff168473ffffffffffffffffffffffffffffffffffffffff1614611811576118108482611dae565b5b5b5050505050565b50505050565b60006118408473ffffffffffffffffffffffffffffffffffffffff16611e2d565b15611999578373ffffffffffffffffffffffffffffffffffffffff1663150b7a02611869610f7a565b8786866040518563ffffffff1660e01b815260040161188b94939291906131cf565b6020604051808303816000875af19250505080156118c757506040513d601f19601f820116820180604052508101906118c49190613230565b60015b611949573d80600081146118f7576040519150601f19603f3d011682016040523d82523d6000602084013e6118fc565b606091505b506000815103611941576040517f08c379a0000000000000000000000000000000000000000000000000000000008152600401611938906130c8565b60405180910390fd5b805181602001fd5b63150b7a0260e01b7bffffffffffffffffffffffffffffffffffffffffffffffffffffffff1916817bffffffffffffffffffffffffffffffffffffffffffffffffffffffff19161491505061199e565b600190505b949350505050565b6119b08383611e50565b6119bd600084848461181f565b6119fc576040517f08c379a00000000000000000000000000000000000000000000000000000000081526004016119f3906130c8565b60405180910390fd5b505050565b6001811115611b2157600073ffffffffffffffffffffffffffffffffffffffff168473ffffffffffffffffffffffffffffffffffffffff1614611a955780600360008673ffffffffffffffffffffffffffffffffffffffff1673ffffffffffffffffffffffffffffffffffffffff1681526020019081526020016000206000828254611a8d919061328c565b925050819055505b600073ffffffffffffffffffffffffffffffffffffffff168373ffffffffffffffffffffffffffffffffffffffff1614611b205780600360008573ffffffffffffffffffffffffffffffffffffffff1673ffffffffffffffffffffffffffffffffffffffff1681526020019081526020016000206000828254611b1891906132c0565b925050819055505b5b50505050565b6008805490506009600083815260200190815260200160002081905550600881908060018154018082558091505060019003906000526020600020016000909190919091505550565b60006001611b7d846108eb565b611b87919061328c565b9050600060076000848152602001908152602001600020549050818114611c6c576000600660008673ffffffffffffffffffffffffffffffffffffffff1673ffffffffffffffffffffffffffffffffffffffff168152602001908152602001600020600084815260200190815260200160002054905080600660008773ffffffffffffffffffffffffffffffffffffffff1673ffffffffffffffffffffffffffffffffffffffff168152602001908152602001600020600084815260200190815260200160002081905550816007600083815260200190815260200160002081905550505b6007600084815260200190815260200160002060009055600660008573ffffffffffffffffffffffffffffffffffffffff1673ffffffffffffffffffffffffffffffffffffffff16815260200190815260200160002060008381526020019081526020016000206000905550505050565b60006001600880549050611cf1919061328c565b9050600060096000848152602001908152602001600020549050600060088381548110611d2157611d20612a89565b5b906000526020600020015490508060088381548110611d4357611d42612a89565b5b906000526020600020018190555081600960008381526020019081526020016000208190555060096000858152602001908152602001600020600090556008805480611d9257611d916132f4565b5b6001900381819060005260206000200160009055905550505050565b6000611db9836108eb565b905081600660008573ffffffffffffffffffffffffffffffffffffffff1673ffffffffffffffffffffffffffffffffffffffff168152602001908152602001600020600083815260200190815260200160002081905550806007600084815260200190815260200160002081905550505050565b6000808273ffffffffffffffffffffffffffffffffffffffff163b119050919050565b600073ffffffffffffffffffffffffffffffffffffffff168273ffffffffffffffffffffffffffffffffffffffff1603611ebf576040517f08c379a0000000000000000000000000000000000000000000000000000000008152600401611eb69061336f565b60405180910390fd5b611ec8816115ce565b15611f08576040517f08c379a0000000000000000000000000000000000000000000000000000000008152600401611eff906133db565b60405180910390fd5b611f166000838360016116bb565b611f1f816115ce565b15611f5f576040517f08c379a0000000000000000000000000000000000000000000000000000000008152600401611f56906133db565b60405180910390fd5b6001600360008473ffffffffffffffffffffffffffffffffffffffff1673ffffffffffffffffffffffffffffffffffffffff16815260200190815260200160002060008282540192505081905550816002600083815260200190815260200160002060006101000a81548173ffffffffffffffffffffffffffffffffffffffff021916908373ffffffffffffffffffffffffffffffffffffffff160217905550808273ffffffffffffffffffffffffffffffffffffffff16600073ffffffffffffffffffffffffffffffffffffffff167fddf252ad1be2c89b69c2b068fc378daa952ba7f163c4a11628f55a4df523b3ef60405160405180910390a4612069600083836001611819565b5050565b6000604051905090565b600080fd5b600080fd5b60007fffffffff0000000000000000000000000000000000000000000000000000000082169050919050565b6120b681612081565b81146120c157600080fd5b50565b6000813590506120d3816120ad565b92915050565b6000602082840312156120ef576120ee612077565b5b60006120fd848285016120c4565b91505092915050565b60008115159050919050565b61211b81612106565b82525050565b60006020820190506121366000830184612112565b92915050565b600081519050919050565b600082825260208201905092915050565b60005b8381101561217657808201518184015260208101905061215b565b60008484015250505050565b6000601f19601f8301169050919050565b600061219e8261213c565b6121a88185612147565b93506121b8818560208601612158565b6121c181612182565b840191505092915050565b600060208201905081810360008301526121e68184612193565b905092915050565b6000819050919050565b612201816121ee565b811461220c57600080fd5b50565b60008135905061221e816121f8565b92915050565b60006020828403121561223a57612239612077565b5b60006122488482850161220f565b91505092915050565b600073ffffffffffffffffffffffffffffffffffffffff82169050919050565b600061227c82612251565b9050919050565b61228c81612271565b82525050565b60006020820190506122a76000830184612283565b92915050565b6122b681612271565b81146122c157600080fd5b50565b6000813590506122d3816122ad565b92915050565b600080604083850312156122f0576122ef612077565b5b60006122fe858286016122c4565b925050602061230f8582860161220f565b9150509250929050565b612322816121ee565b82525050565b600060208201905061233d6000830184612319565b92915050565b60008060006060848603121561235c5761235b612077565b5b600061236a868287016122c4565b935050602061237b868287016122c4565b925050604061238c8682870161220f565b9150509250925092565b6000602082840312156123ac576123ab612077565b5b60006123ba848285016122c4565b91505092915050565b6123cc81612106565b81146123d757600080fd5b50565b6000813590506123e9816123c3565b92915050565b6000806040838503121561240657612405612077565b5b6000612414858286016122c4565b9250506020612425858286016123da565b9150509250929050565b600080fd5b600080fd5b7f4e487b7100000000000000000000000000000000000000000000000000000000600052604160045260246000fd5b61247182612182565b810181811067ffffffffffffffff821117156124905761248f612439565b5b80604052505050565b60006124a361206d565b90506124af8282612468565b919050565b600067ffffffffffffffff8211156124cf576124ce612439565b5b6124d882612182565b9050602081019050919050565b82818337600083830152505050565b6000612507612502846124b4565b612499565b90508281526020810184848401111561252357612522612434565b5b61252e8482856124e5565b509392505050565b600082601f83011261254b5761254a61242f565b5b813561255b8482602086016124f4565b91505092915050565b6000806000806080858703121561257e5761257d612077565b5b600061258c878288016122c4565b945050602061259d878288016122c4565b93505060406125ae8782880161220f565b925050606085013567ffffffffffffffff8111156125cf576125ce61207c565b5b6125db87828801612536565b91505092959194509250565b600067ffffffffffffffff82111561260257612601612439565b5b61260b82612182565b9050602081019050919050565b600061262b612626846125e7565b612499565b90508281526020810184848401111561264757612646612434565b5b6126528482856124e5565b509392505050565b600082601f83011261266f5761266e61242f565b5b813561267f848260208601612618565b91505092915050565b60006020828403121561269e5761269d612077565b5b600082013567ffffffffffffffff8111156126bc576126bb61207c565b5b6126c88482850161265a565b91505092915050565b600080604083850312156126e8576126e7612077565b5b60006126f6858286016122c4565b9250506020612707858286016122c4565b9150509250929050565b60006060820190506127266000830186612319565b6127336020830185612283565b81810360408301526127458184612193565b9050949350505050565b7f4e487b7100000000000000000000000000000000000000000000000000000000600052602260045260246000fd5b6000600282049050600182168061279657607f821691505b6020821081036127a9576127a861274f565b5b50919050565b7f4552433732313a20617070726f76616c20746f2063757272656e74206f776e6560008201527f7200000000000000000000000000000000000000000000000000000000000000602082015250565b600061280b602183612147565b9150612816826127af565b604082019050919050565b6000602082019050818103600083015261283a816127fe565b9050919050565b7f4552433732313a20617070726f76652063616c6c6572206973206e6f7420746f60008201527f6b656e206f776e6572206f7220617070726f76656420666f7220616c6c000000602082015250565b600061289d603d83612147565b91506128a882612841565b604082019050919050565b600060208201905081810360008301526128cc81612890565b9050919050565b7f4552433732313a2063616c6c6572206973206e6f7420746f6b656e206f776e6560008201527f72206f7220617070726f76656400000000000000000000000000000000000000602082015250565b600061292f602d83612147565b915061293a826128d3565b604082019050919050565b6000602082019050818103600083015261295e81612922565b9050919050565b7f455243373231456e756d657261626c653a206f776e657220696e646578206f7560008201527f74206f6620626f756e6473000000000000000000000000000000000000000000602082015250565b60006129c1602b83612147565b91506129cc82612965565b604082019050919050565b600060208201905081810360008301526129f0816129b4565b9050919050565b7f455243373231456e756d657261626c653a20676c6f62616c20696e646578206f60008201527f7574206f6620626f756e64730000000000000000000000000000000000000000602082015250565b6000612a53602c83612147565b9150612a5e826129f7565b604082019050919050565b60006020820190508181036000830152612a8281612a46565b9050919050565b7f4e487b7100000000000000000000000000000000000000000000000000000000600052603260045260246000fd5b7f4552433732313a20696e76616c696420746f6b656e2049440000000000000000600082015250565b6000612aee601883612147565b9150612af982612ab8565b602082019050919050565b60006020820190508181036000830152612b1d81612ae1565b9050919050565b7f4552433732313a2061646472657373207a65726f206973206e6f74206120766160008201527f6c6964206f776e65720000000000000000000000000000000000000000000000602082015250565b6000612b80602983612147565b9150612b8b82612b24565b604082019050919050565b60006020820190508181036000830152612baf81612b73565b9050919050565b7f546f6b656e20646f65736e6f742065786973743a20455243373231555249537460008201527f6f72616765000000000000000000000000000000000000000000000000000000602082015250565b6000612c12602583612147565b9150612c1d82612bb6565b604082019050919050565b60006020820190508181036000830152612c4181612c05565b9050919050565b60008190508160005260206000209050919050565b60006020601f8301049050919050565b600082821b905092915050565b600060088302612caa7fffffffffffffffffffffffffffffffffffffffffffffffffffffffffffffffff82612c6d565b612cb48683612c6d565b95508019841693508086168417925050509392505050565b6000819050919050565b6000612cf1612cec612ce7846121ee565b612ccc565b6121ee565b9050919050565b6000819050919050565b612d0b83612cd6565b612d1f612d1782612cf8565b848454612c7a565b825550505050565b600090565b612d34612d27565b612d3f818484612d02565b505050565b5b81811015612d6357612d58600082612d2c565b600181019050612d45565b5050565b601f821115612da857612d7981612c48565b612d8284612c5d565b81016020851015612d91578190505b612da5612d9d85612c5d565b830182612d44565b50505b505050565b600082821c905092915050565b6000612dcb60001984600802612dad565b1980831691505092915050565b6000612de48383612dba565b9150826002028217905092915050565b612dfd8261213c565b67ffffffffffffffff811115612e1657612e15612439565b5b612e20825461277e565b612e2b828285612d67565b600060209050601f831160018114612e5e5760008415612e4c578287015190505b612e568582612dd8565b865550612ebe565b601f198416612e6c86612c48565b60005b82811015612e9457848901518255600182019150602085019450602081019050612e6f565b86831015612eb15784890151612ead601f891682612dba565b8355505b6001600288020188555050505b505050505050565b7f4552433732313a207472616e736665722066726f6d20696e636f72726563742060008201527f6f776e6572000000000000000000000000000000000000000000000000000000602082015250565b6000612f22602583612147565b9150612f2d82612ec6565b604082019050919050565b60006020820190508181036000830152612f5181612f15565b9050919050565b7f4552433732313a207472616e7366657220746f20746865207a65726f2061646460008201527f7265737300000000000000000000000000000000000000000000000000000000602082015250565b6000612fb4602483612147565b9150612fbf82612f58565b604082019050919050565b60006020820190508181036000830152612fe381612fa7565b9050919050565b7f4552433732313a20617070726f766520746f2063616c6c657200000000000000600082015250565b6000613020601983612147565b915061302b82612fea565b602082019050919050565b6000602082019050818103600083015261304f81613013565b9050919050565b7f4552433732313a207472616e7366657220746f206e6f6e20455243373231526560008201527f63656976657220696d706c656d656e7465720000000000000000000000000000602082015250565b60006130b2603283612147565b91506130bd82613056565b604082019050919050565b600060208201905081810360008301526130e1816130a5565b9050919050565b7f455243373231456e756d657261626c653a20636f6e736563757469766520747260008201527f616e7366657273206e6f7420737570706f727465640000000000000000000000602082015250565b6000613144603583612147565b915061314f826130e8565b604082019050919050565b6000602082019050818103600083015261317381613137565b9050919050565b600081519050919050565b600082825260208201905092915050565b60006131a18261317a565b6131ab8185613185565b93506131bb818560208601612158565b6131c481612182565b840191505092915050565b60006080820190506131e46000830187612283565b6131f16020830186612283565b6131fe6040830185612319565b81810360608301526132108184613196565b905095945050505050565b60008151905061322a816120ad565b92915050565b60006020828403121561324657613245612077565b5b60006132548482850161321b565b91505092915050565b7f4e487b7100000000000000000000000000000000000000000000000000000000600052601160045260246000fd5b6000613297826121ee565b91506132a2836121ee565b92508282039050818111156132ba576132b961325d565b5b92915050565b60006132cb826121ee565b91506132d6836121ee565b92508282019050808211156132ee576132ed61325d565b5b92915050565b7f4e487b7100000000000000000000000000000000000000000000000000000000600052603160045260246000fd5b7f4552433732313a206d696e7420746f20746865207a65726f2061646472657373600082015250565b6000613359602083612147565b915061336482613323565b602082019050919050565b600060208201905081810360008301526133888161334c565b9050919050565b7f4552433732313a20746f6b656e20616c7265616479206d696e74656400000000600082015250565b60006133c5601c83612147565b91506133d08261338f565b602082019050919050565b600060208201905081810360008301526133f4816133b8565b905091905056fea2646970667358221220400804d1fd456d64fb809d0270e116b39b42c088489126302d1581572e18d55464736f6c63430008110033",
  "immutableReferences": {},
  "source": "// SPDX-License-Identifier: MIT\npragma solidity ^0.8.0;\n\nimport \"@openzeppelin/contracts/token/ERC721/ERC721.sol\";\nimport \"@openzeppelin/contracts/token/ERC721/extensions/ERC721Enumerable.sol\";\nimport \"@openzeppelin/contracts/token/ERC721/extensions/ERC721URIStorage.sol\";\nimport \"@openzeppelin/contracts/utils/Counters.sol\";\n\ncontract MyToken is ERC721Enumerable{\n\n  using Counters for Counters.Counter; //using counter to store the token id\n\n  Counters.Counter private _tokenIds; //token id as a counter\n\n  address public contract_owner;\n\n  //token \n  struct Token {\n    uint256 id;\n    address creator;\n    string url;\n  }\n\n  mapping(uint256 => Token) public mapping_of_tokens; //id => Item mapping\n\n  constructor () ERC721(\"MyToken\", \"Notes\") {}\n\n  function mint(string memory url) public returns (uint256){\n\n    _tokenIds.increment(); //new token getting added, increment the count\n\n    uint256 newTokenId = _tokenIds.current(); \n\n    _safeMint(msg.sender, newTokenId); //safely minting the token\n\n    approve(contract_owner, newTokenId); //smart contract owner approves the token\n\n    //it gets added to the mapping\n    mapping_of_tokens[newTokenId] = Token({\n      id: newTokenId, \n      creator: msg.sender,\n      url: url\n    });\n\n    //return the newly created token id\n    return newTokenId;\n  }\n\n  function tokenURI(uint256 tokenId) public view override returns (string memory) {\n    require(_exists(tokenId), \"Token doesnot exist: ERC721URIStorage\");\n    return mapping_of_tokens[tokenId].url;\n  }\n  \n  function setMarketplace(address market) public {\n    contract_owner = market;\n  }\n\n}",
  "sourcePath": "/Users/guneet/Downloads/Fall2022/myproject/Marketplace/contracts/MyToken.sol",
  "compiler": {
    "name": "solc",
    "version": "0.8.17+commit.8df45f5f.Emscripten.clang"
  },
  "schemaVersion": "3.4.10",
  "updatedAt": "2022-11-27T01:27:56.917Z",
  "devdoc": {
    "kind": "dev",
    "methods": {
      "approve(address,uint256)": {
        "details": "See {IERC721-approve}."
      },
      "balanceOf(address)": {
        "details": "See {IERC721-balanceOf}."
      },
      "getApproved(uint256)": {
        "details": "See {IERC721-getApproved}."
      },
      "isApprovedForAll(address,address)": {
        "details": "See {IERC721-isApprovedForAll}."
      },
      "name()": {
        "details": "See {IERC721Metadata-name}."
      },
      "ownerOf(uint256)": {
        "details": "See {IERC721-ownerOf}."
      },
      "safeTransferFrom(address,address,uint256)": {
        "details": "See {IERC721-safeTransferFrom}."
      },
      "safeTransferFrom(address,address,uint256,bytes)": {
        "details": "See {IERC721-safeTransferFrom}."
      },
      "setApprovalForAll(address,bool)": {
        "details": "See {IERC721-setApprovalForAll}."
      },
      "supportsInterface(bytes4)": {
        "details": "See {IERC165-supportsInterface}."
      },
      "symbol()": {
        "details": "See {IERC721Metadata-symbol}."
      },
      "tokenByIndex(uint256)": {
        "details": "See {IERC721Enumerable-tokenByIndex}."
      },
      "tokenOfOwnerByIndex(address,uint256)": {
        "details": "See {IERC721Enumerable-tokenOfOwnerByIndex}."
      },
      "tokenURI(uint256)": {
        "details": "See {IERC721Metadata-tokenURI}."
      },
      "totalSupply()": {
        "details": "See {IERC721Enumerable-totalSupply}."
      },
      "transferFrom(address,address,uint256)": {
        "details": "See {IERC721-transferFrom}."
      }
    },
    "version": 1
  },
  "userdoc": {
    "kind": "user",
    "methods": {},
    "version": 1
  }
}